:100000000C9403010C9430010C9430010C943001D9
:100010000C9430010C9430010C9430010C9430019C
:100020000C9430010C9430010C9430010C9430018C
:100030000C9430010C9430010C9430010C9430017C
:100040000C9430010C942C030C9430010C9430016E
:100050000C9430010C9430010C9430010C94DB04AE
:100060000C9430010C9430010C9430010C9430014C
:100070000C9430010C9430010C9430010C9430013C
:100080000C9493010C9430010C9430010C943001C9
:100090000C9430010C9430010C9430010C9430011C
:1000A0000C9430010C9430010C94FC030C9430013E
:1000B0000C9430010C9430010C9430010C946302C8
:1000C0000C9430010C9430010C9430010C943001EC
:1000D0000C9430010C9430010C9430010C943001DC
:1000E0000C94300100002100240027002A002D007C
:1000F0003000330001010000040107010A01000083
:100100002200250028002B002E00310034000201BF
:100110000000050108010B0100002000230026005B
:1001200029002C002F00320000010000030106010D
:10013000090105050505070508080808020202026D
:100140000A0A080804040404010101010101010173
:100150000303030303030303040707070C0C0C0C3E
:100160000C0C0C0C02020202060606060606060627
:100170000B0B0B0B0B0B0B0B0102102020080810B4
:100180002040102040800201020108040201010207
:1001900004081020408080402010080402018004E0
:1001A000020180402010080402010804020101023B
:1001B0000408102040800102040810204080000044
:1001C000090A02080B0C0D070603040100000000D9
:1001D000000000000000000000000000000000001F
:1001E0000000000000000000000011100F000000DF
:1001F00000000000000000000000000000000000FF
:1002000000000000320111241FBECFEFD1E2DEBF9B
:10021000CDBF00E00CBF12E0A0E0B2E0E8E5FFE0F7
:1002200000E00BBF02C007900D92A030B107D9F7D4
:100230001BBE12E0A0E0B2E001C01D92A33AB107DC
:10024000E1F712E0C6E0D2E004C02297FE010E946E
:10025000A607C430D107C9F70E94CC040C94AA07A2
:100260000C94000080E092E00E9479010895809152
:10027000030290910402892B09F0089585E06FEF45
:1002800070E00E94DE0568EE73E080E090E00E947E
:10029000230585E060E070E00E94DE0568EE73E013
:1002A00080E090E00E94230585E06FEF70E00E94FF
:1002B000DE0568EE73E080E090E00E94230585E0B3
:1002C00060E070E00E94DE0568EE73E080E090E0A0
:1002D0000E9423058091030290910402019690935D
:1002E000040280930302089585E061E00E94BE0647
:1002F0000895FC0180910502803318F08FEF808310
:10030000089580838F5F80930502815090E0FC0107
:10031000EE0FFF1FE80FF91FEA5FFD4F88EB9BE030
:100320009283818308951F920F920FB60F920BB69E
:100330000F9211242F933F934F935F936F937F936B
:100340008F939F93AF93BF93EF93FF938091980206
:1003500087FDB2C080919802992787FD90954896B5
:1003600040910502242F30E0821793070CF443C01C
:10037000809198028F5F80939802809198029927CC
:1003800087FD90954896242F30E0821793072CF430
:10039000809198028C300CF453C08091940090911D
:1003A0009500049680549C49F8F0809194009091B7
:1003B0009500049690939900809398008FEF809316
:1003C0009802FF91EF91BF91AF919F918F917F9193
:1003D0006F915F914F913F912F910F900BBE0F90B6
:1003E0000FBE0F901F90189580E49CE990939900A0
:1003F00080939800E3CF80919802992787FD90958C
:100400004896FC01EE0FFF1FE80FF91FEA5FFD4F52
:10041000808186FFADCF80919802992787FD9095C6
:100420004896FC01EE0FFF1FE80FF91FEA5FFD4F32
:1004300080818F7360E00E9471074091050298CF20
:10044000209194003091950080919802992787FD22
:1004500090954896FC01EE0FFF1FE80FF91FEA5F29
:10046000FD4F81819281280F391F3093990020938D
:10047000980080919802992787FD90954896FC01F5
:10048000EE0FFF1FE80FF91FEA5FFD4F808186FF27
:1004900098CF80919802992787FD90954896FC0106
:1004A000EE0FFF1FE80FF91FEA5FFD4F80818F738A
:1004B00061E00E94710785CF109295001092940020
:1004C0004091050255CF1F920F920FB60F920BB6B7
:1004D0000F9211242F933F934F935F936F937F93CA
:1004E0008F939F93AF93BF93EF93FF938091960267
:1004F00087FDABC080919602992787FD909540912A
:100500000502242F30E0821793070CF442C080913B
:1005100096028F5F8093960280919602992787FDBD
:100520009095242F30E0821793072CF48091960247
:100530008C300CF451C080912401909125010496D7
:1005400080549C49F8F080912401909125010496F3
:1005500090932901809328018FEF80939602FF9159
:10056000EF91BF91AF919F918F917F916F915F912B
:100570004F913F912F910F900BBE0F900FBE0F9098
:100580001F90189580E49CE990932901809328019D
:10059000E3CF80919602992787FD9095FC01EE0F9D
:1005A000FF1FE80FF91FEA5FFD4F808186FFAFCF85
:1005B00080919602992787FD9095FC01EE0FFF1F11
:1005C000E80FF91FEA5FFD4F80818F7360E00E94A2
:1005D0007107409105029BCF2091240130912501A4
:1005E00080919602992787FD9095FC01EE0FFF1FE1
:1005F000E80FF91FEA5FFD4F81819281280F391FB3
:10060000309329012093280180919602992787FD34
:100610009095FC01EE0FFF1FE80FF91FEA5FFD4FF9
:10062000808186FF9CCF80919602992787FD9095C7
:10063000FC01EE0FFF1FE80FF91FEA5FFD4F8081FD
:100640008F7361E00E9471078ACF1092250110928A
:100650002401409105025BCF1F920F920FB60F92BB
:100660000BB60F9211242F933F934F935F936F9389
:100670007F938F939F93AF93BF93EF93FF9380915B
:10068000970287FDB2C080919702992787FD9095C8
:100690000C9640910502242F30E0821793070CF44A
:1006A00043C0809197028F5F809397028091970259
:1006B000992787FD90950C96242F30E08217930799
:1006C0002CF4809197028C300CF453C080918400FC
:1006D00090918500049680549C49F8F080918400A4
:1006E00090918500049690938900809388008FEF05
:1006F00080939702FF91EF91BF91AF919F918F915E
:100700007F916F915F914F913F912F910F900BBE11
:100710000F900FBE0F901F90189580E49CE9909366
:10072000890080938800E3CF80919702992787FD05
:1007300090950C96FC01EE0FFF1FE80FF91FEA5F82
:10074000FD4F808186FFADCF80919702992787FD6D
:1007500090950C96FC01EE0FFF1FE80FF91FEA5F62
:10076000FD4F80818F7360E00E9471074091050208
:1007700098CF20918400309185008091970299272D
:1007800087FD90950C96FC01EE0FFF1FE80FF91FF7
:10079000EA5FFD4F81819281280F391F30938900D4
:1007A0002093880080919702992787FD90950C9659
:1007B000FC01EE0FFF1FE80FF91FEA5FFD4F80817C
:1007C00086FF98CF80919702992787FD90950C9688
:1007D000FC01EE0FFF1FE80FF91FEA5FFD4F80815C
:1007E0008F7361E00E94710785CF1092850010928F
:1007F00084004091050255CF1F920F920FB60F92C1
:100800000BB60F9211242F933F934F935F936F93E7
:100810007F938F939F93AF93BF93EF93FF938091B9
:10082000990287FDB2C080919902992787FD909522
:10083000849640910502242F30E0821793070CF430
:1008400043C0809199028F5F8093990280919902B1
:10085000992787FD90958496242F30E0821793077F
:100860002CF4809199028C300CF453C08091A40038
:100870009091A500049680549C49F8F08091A400C2
:100880009091A50004969093A9008093A8008FEF03
:1008900080939902FF91EF91BF91AF919F918F91BA
:1008A0007F916F915F914F913F912F910F900BBE70
:1008B0000F900FBE0F901F90189580E49CE99093C5
:1008C000A9008093A800E3CF80919902992787FD22
:1008D00090958496FC01EE0FFF1FE80FF91FEA5F69
:1008E000FD4F808186FFADCF80919902992787FDCA
:1008F00090958496FC01EE0FFF1FE80FF91FEA5F49
:10090000FD4F80818F7360E00E9471074091050266
:1009100098CF2091A4003091A50080919902992749
:1009200087FD90958496FC01EE0FFF1FE80FF91FDD
:10093000EA5FFD4F81819281280F391F3093A90012
:100940002093A80080919902992787FD909584961D
:10095000FC01EE0FFF1FE80FF91FEA5FFD4F8081DA
:1009600086FF98CF80919902992787FD909584966C
:10097000FC01EE0FFF1FE80FF91FEA5FFD4F8081BA
:100980008F7361E00E94710785CF1092A5001092CD
:10099000A4004091050255CFCF93DF930E947C05C0
:1009A0000E947401C0E0D0E00E9437012097E1F37B
:1009B0000E940000F9CF1F920F920FB60F921124E0
:1009C0002F933F938F939F93AF93BF9380919E02FA
:1009D00090919F02A091A002B091A1023091A20239
:1009E0000196A11DB11D232F2D5F2D3720F02D570E
:1009F0000196A11DB11D2093A20280939E029093A7
:100A00009F02A093A002B093A10280919A029091BC
:100A10009B02A0919C02B0919D020196A11DB11D67
:100A200080939A0290939B02A0939C02B0939D02A4
:100A3000BF91AF919F918F913F912F910F900FBEDA
:100A40000F901F9018959B01AC017FB7F89480918F
:100A50009A0290919B02A0919C02B0919D0266B572
:100A6000A89B05C06F3F19F00196A11DB11D7FBF66
:100A7000BA2FA92F982F8827860F911DA11DB11D70
:100A800062E0880F991FAA1FBB1F6A95D1F7BC01AE
:100A90002DC0FFB7F89480919A0290919B02A0918B
:100AA0009C02B0919D02E6B5A89B05C0EF3F19F0EE
:100AB0000196A11DB11DFFBFBA2FA92F982F88271E
:100AC0008E0F911DA11DB11DE2E0880F991FAA1F75
:100AD000BB1FEA95D1F7861B970B885E9340C8F23F
:100AE000215030404040504068517C4F2115310525
:100AF0004105510571F60895789484B5826084BDEE
:100B000084B5816084BD85B5826085BD85B5816011
:100B100085BDEEE6F0E0808181608083E1E8F0E071
:100B20001082808182608083808181608083E0E8A0
:100B3000F0E0808181608083E1EBF0E0808184607F
:100B40008083E0EBF0E0808181608083E1E9F0E088
:100B5000808182608083808181608083E0E9F0E031
:100B6000808181608083E1EAF0E08081826080831F
:100B7000808181608083E0EAF0E080818160808311
:100B8000E1E2F1E080818260808380818160808306
:100B9000E0E2F1E0808181608083EAE7F0E080813B
:100BA0008460808380818260808380818160808393
:100BB0008081806880831092C10008951F93CF9335
:100BC000DF93182FEB0161E00E94BE06209709F425
:100BD000CAC0CF3FD10509F4C9C0E12FF0E0E2540B
:100BE000FE4F8491893009F466C08A30B0F48430B5
:100BF000F1F1853040F4823059F1833070F5813065
:100C000009F0AEC020C0873009F443C0883008F036
:100C100048C0863009F0A4C034C08D3009F478C0D3
:100C20008E3038F48B3009F45AC08C3008F066C02E
:100C30004CC0803109F480C0813109F487C08F3005
:100C400009F08EC06FC084B5806884BDC7BD92C0F6
:100C500084B5806284BDC8BD8DC0809180008068ED
:100C600080938000D0938900C093880083C08091D6
:100C70008000806280938000D0938B00C0938A00B4
:100C800079C08091B00080688093B000C093B300B9
:100C900071C08091B00080628093B000C093B400B6
:100CA00069C080919000806880939000D0939900F3
:100CB000C09398005FC08091900080628093900004
:100CC000D0939B00C0939A0055C08091900088609B
:100CD00080939000D0939D00C0939C004BC0809166
:100CE000A00080688093A0008091A0008F7B8093FB
:100CF000A000D093A900C093A8003CC08091A000A0
:100D000080628093A000D093AB00C093AA0032C051
:100D10008091A00088608093A000D093AD00C09324
:100D2000AC0028C080912001806880932001D0937E
:100D30002901C09328011EC0809120018062809308
:100D40002001D0932B01C0932A0114C0809120016F
:100D5000886080932001D0932D01C0932C010AC09C
:100D6000C038D1051CF4812F60E002C0812F61E002
:100D70000E947107DF91CF911F910895CF93DF9368
:100D8000482F50E0CA0188589E4FFC0134914E5CB8
:100D90005E4FFA018491882369F190E0880F991FD2
:100DA000FC01EC51FF4FA591B491FC01E250FF4FC3
:100DB000C591D491662351F42FB7F8948C91932F59
:100DC000909589238C93888189230BC0623061F4CC
:100DD0002FB7F8948C91932F909589238C938881C9
:100DE000832B88832FBF06C09FB7F8948C91832BE9
:100DF0008C939FBFDF91CF910895893009F449C04A
:100E00008A30A0F4843051F1853040F4823079F199
:100E1000833000F5813009F063C026C0873079F156
:100E2000883098F5863009F05BC025C08D3009F414
:100E300042C08E3028F48B30B1F18C30C0F52DC01B
:100E4000803109F442C0813109F445C08F3009F086
:100E500047C037C0809180008F7703C080918000A9
:100E60008F7D80938000089584B58F7702C084B50C
:100E70008F7D84BD08958091B0008F7703C08091ED
:100E8000B0008F7D8093B0000895809190008F779F
:100E900007C0809190008F7D03C080919000877F74
:100EA0008093900008958091A0008F7707C0809173
:100EB000A0008F7D03C08091A000877F8093A00059
:100EC0000895809120018F7703C0809120018F7D4C
:100ED00080932001089580912001877F80932001D5
:100EE0000895FF920F931F93F62E482F50E0CA01EA
:100EF00082549E4FFC012491CA0188589E4FFC01E8
:100F000014914E5C5E4FFA0104910023C9F0222334
:100F100019F0822F0E94FD06E02FF0E0EE0FFF1F78
:100F2000E250FF4FA591B4919FB7F894FF2021F4B0
:100F30008C911095812302C08C91812B8C939FBF43
:100F40001F910F91FF900895EE0FFF1F0590F491F0
:080F5000E02D1994F894FFCF85
:00000001FF
